{
	"Lottery.sol": {
		"Lottery": {
			"abi": [
				{
					"inputs": [],
					"stateMutability": "nonpayable",
					"type": "constructor"
				},
				{
					"inputs": [],
					"name": "Manager",
					"outputs": [
						{
							"internalType": "address",
							"name": "",
							"type": "address"
						}
					],
					"stateMutability": "view",
					"type": "function"
				},
				{
					"inputs": [],
					"name": "getBalance",
					"outputs": [
						{
							"internalType": "uint256",
							"name": "",
							"type": "uint256"
						}
					],
					"stateMutability": "view",
					"type": "function"
				},
				{
					"inputs": [
						{
							"internalType": "uint256",
							"name": "",
							"type": "uint256"
						}
					],
					"name": "participants",
					"outputs": [
						{
							"internalType": "address payable",
							"name": "",
							"type": "address"
						}
					],
					"stateMutability": "view",
					"type": "function"
				},
				{
					"stateMutability": "payable",
					"type": "receive"
				}
			],
			"devdoc": {
				"kind": "dev",
				"methods": {},
				"version": 1
			},
			"evm": {
				"assembly": "    /* \"Lottery.sol\":72:595  contract Lottery{\r... */\n  mstore(0x40, 0x80)\n    /* \"Lottery.sol\":172:240  constructor(){\r... */\n  callvalue\n  dup1\n  iszero\n  tag_1\n  jumpi\n  0x00\n  dup1\n  revert\ntag_1:\n  pop\n    /* \"Lottery.sol\":204:214  msg.sender */\n  caller\n    /* \"Lottery.sol\":196:203  Manager */\n  0x00\n  dup1\n    /* \"Lottery.sol\":196:214  Manager=msg.sender */\n  0x0100\n  exp\n  dup2\n  sload\n  dup2\n  0xffffffffffffffffffffffffffffffffffffffff\n  mul\n  not\n  and\n  swap1\n  dup4\n  0xffffffffffffffffffffffffffffffffffffffff\n  and\n  mul\n  or\n  swap1\n  sstore\n  pop\n    /* \"Lottery.sol\":72:595  contract Lottery{\r... */\n  dataSize(sub_0)\n  dup1\n  dataOffset(sub_0)\n  0x00\n  codecopy\n  0x00\n  return\nstop\n\nsub_0: assembly {\n        /* \"Lottery.sol\":72:595  contract Lottery{\r... */\n      mstore(0x40, 0x80)\n      jumpi(tag_1, lt(calldatasize, 0x04))\n      shr(0xe0, calldataload(0x00))\n      dup1\n      0x12065fe0\n      eq\n      tag_3\n      jumpi\n      dup1\n      0x35c1d349\n      eq\n      tag_4\n      jumpi\n      dup1\n      0x78357e53\n      eq\n      tag_5\n      jumpi\n      jump(tag_2)\n    tag_1:\n      jumpi(tag_2, calldatasize)\n        /* \"Lottery.sol\":304:311  1 ether */\n      0x0de0b6b3a7640000\n        /* \"Lottery.sol\":293:302  msg.value */\n      callvalue\n        /* \"Lottery.sol\":293:311  msg.value>=1 ether */\n      lt\n      iszero\n        /* \"Lottery.sol\":285:348  require(msg.value>=1 ether,\"Cannot transfer less than 1 ether\") */\n      tag_8\n      jumpi\n      mload(0x40)\n      0x08c379a000000000000000000000000000000000000000000000000000000000\n      dup2\n      mstore\n      0x04\n      add\n      tag_9\n      swap1\n      tag_10\n      jump\t// in\n    tag_9:\n      mload(0x40)\n      dup1\n      swap2\n      sub\n      swap1\n      revert\n    tag_8:\n        /* \"Lottery.sol\":359:371  participants */\n      0x01\n        /* \"Lottery.sol\":385:395  msg.sender */\n      caller\n        /* \"Lottery.sol\":359:397  participants.push(payable(msg.sender)) */\n      swap1\n      dup1\n      0x01\n      dup2\n      sload\n      add\n      dup1\n      dup3\n      sstore\n      dup1\n      swap2\n      pop\n      pop\n      0x01\n      swap1\n      sub\n      swap1\n      0x00\n      mstore\n      keccak256(0x00, 0x20)\n      add\n      0x00\n      swap1\n      swap2\n      swap1\n      swap2\n      swap1\n      swap2\n      0x0100\n      exp\n      dup2\n      sload\n      dup2\n      0xffffffffffffffffffffffffffffffffffffffff\n      mul\n      not\n      and\n      swap1\n      dup4\n      0xffffffffffffffffffffffffffffffffffffffff\n      and\n      mul\n      or\n      swap1\n      sstore\n      pop\n        /* \"Lottery.sol\":72:595  contract Lottery{\r... */\n      stop\n    tag_2:\n      0x00\n      dup1\n      revert\n        /* \"Lottery.sol\":413:584  function getBalance() public view returns(uint){\r... */\n    tag_3:\n      callvalue\n      dup1\n      iszero\n      tag_12\n      jumpi\n      0x00\n      dup1\n      revert\n    tag_12:\n      pop\n      tag_13\n      tag_14\n      jump\t// in\n    tag_13:\n      mload(0x40)\n      tag_15\n      swap2\n      swap1\n      tag_16\n      jump\t// in\n    tag_15:\n      mload(0x40)\n      dup1\n      swap2\n      sub\n      swap1\n      return\n        /* \"Lottery.sol\":126:163  address payable[] public participants */\n    tag_4:\n      callvalue\n      dup1\n      iszero\n      tag_17\n      jumpi\n      0x00\n      dup1\n      revert\n    tag_17:\n      pop\n      tag_18\n      0x04\n      dup1\n      calldatasize\n      sub\n      dup2\n      add\n      swap1\n      tag_19\n      swap2\n      swap1\n      tag_20\n      jump\t// in\n    tag_19:\n      tag_21\n      jump\t// in\n    tag_18:\n      mload(0x40)\n      tag_22\n      swap2\n      swap1\n      tag_23\n      jump\t// in\n    tag_22:\n      mload(0x40)\n      dup1\n      swap2\n      sub\n      swap1\n      return\n        /* \"Lottery.sol\":97:119  address public Manager */\n    tag_5:\n      callvalue\n      dup1\n      iszero\n      tag_24\n      jumpi\n      0x00\n      dup1\n      revert\n    tag_24:\n      pop\n      tag_25\n      tag_26\n      jump\t// in\n    tag_25:\n      mload(0x40)\n      tag_27\n      swap2\n      swap1\n      tag_28\n      jump\t// in\n    tag_27:\n      mload(0x40)\n      dup1\n      swap2\n      sub\n      swap1\n      return\n        /* \"Lottery.sol\":413:584  function getBalance() public view returns(uint){\r... */\n    tag_14:\n        /* \"Lottery.sol\":455:459  uint */\n      0x00\n        /* \"Lottery.sol\":491:498  Manager */\n      dup1\n      0x00\n      swap1\n      sload\n      swap1\n      0x0100\n      exp\n      swap1\n      div\n      0xffffffffffffffffffffffffffffffffffffffff\n      and\n        /* \"Lottery.sol\":479:498  msg.sender==Manager */\n      0xffffffffffffffffffffffffffffffffffffffff\n      and\n        /* \"Lottery.sol\":479:489  msg.sender */\n      caller\n        /* \"Lottery.sol\":479:498  msg.sender==Manager */\n      0xffffffffffffffffffffffffffffffffffffffff\n      and\n      eq\n        /* \"Lottery.sol\":471:537  require(msg.sender==Manager,\"Only Manager can access the balance\") */\n      tag_30\n      jumpi\n      mload(0x40)\n      0x08c379a000000000000000000000000000000000000000000000000000000000\n      dup2\n      mstore\n      0x04\n      add\n      tag_31\n      swap1\n      tag_32\n      jump\t// in\n    tag_31:\n      mload(0x40)\n      dup1\n      swap2\n      sub\n      swap1\n      revert\n    tag_30:\n        /* \"Lottery.sol\":555:576  address(this).balance */\n      selfbalance\n        /* \"Lottery.sol\":548:576  return address(this).balance */\n      swap1\n      pop\n        /* \"Lottery.sol\":413:584  function getBalance() public view returns(uint){\r... */\n      swap1\n      jump\t// out\n        /* \"Lottery.sol\":126:163  address payable[] public participants */\n    tag_21:\n      0x01\n      dup2\n      dup2\n      sload\n      dup2\n      lt\n      tag_33\n      jumpi\n      0x00\n      dup1\n      revert\n    tag_33:\n      swap1\n      0x00\n      mstore\n      keccak256(0x00, 0x20)\n      add\n      0x00\n      swap2\n      pop\n      sload\n      swap1\n      0x0100\n      exp\n      swap1\n      div\n      0xffffffffffffffffffffffffffffffffffffffff\n      and\n      dup2\n      jump\t// out\n        /* \"Lottery.sol\":97:119  address public Manager */\n    tag_26:\n      0x00\n      dup1\n      sload\n      swap1\n      0x0100\n      exp\n      swap1\n      div\n      0xffffffffffffffffffffffffffffffffffffffff\n      and\n      dup2\n      jump\t// out\n        /* \"#utility.yul\":7:146   */\n    tag_36:\n        /* \"#utility.yul\":53:58   */\n      0x00\n        /* \"#utility.yul\":91:97   */\n      dup2\n        /* \"#utility.yul\":78:98   */\n      calldataload\n        /* \"#utility.yul\":69:98   */\n      swap1\n      pop\n        /* \"#utility.yul\":107:140   */\n      tag_38\n        /* \"#utility.yul\":134:139   */\n      dup2\n        /* \"#utility.yul\":107:140   */\n      tag_39\n      jump\t// in\n    tag_38:\n        /* \"#utility.yul\":7:146   */\n      swap3\n      swap2\n      pop\n      pop\n      jump\t// out\n        /* \"#utility.yul\":152:481   */\n    tag_20:\n        /* \"#utility.yul\":211:217   */\n      0x00\n        /* \"#utility.yul\":260:262   */\n      0x20\n        /* \"#utility.yul\":248:257   */\n      dup3\n        /* \"#utility.yul\":239:246   */\n      dup5\n        /* \"#utility.yul\":235:258   */\n      sub\n        /* \"#utility.yul\":231:263   */\n      slt\n        /* \"#utility.yul\":228:347   */\n      iszero\n      tag_41\n      jumpi\n        /* \"#utility.yul\":266:345   */\n      tag_42\n      tag_43\n      jump\t// in\n    tag_42:\n        /* \"#utility.yul\":228:347   */\n    tag_41:\n        /* \"#utility.yul\":386:387   */\n      0x00\n        /* \"#utility.yul\":411:464   */\n      tag_44\n        /* \"#utility.yul\":456:463   */\n      dup5\n        /* \"#utility.yul\":447:453   */\n      dup3\n        /* \"#utility.yul\":436:445   */\n      dup6\n        /* \"#utility.yul\":432:454   */\n      add\n        /* \"#utility.yul\":411:464   */\n      tag_36\n      jump\t// in\n    tag_44:\n        /* \"#utility.yul\":401:464   */\n      swap2\n      pop\n        /* \"#utility.yul\":357:474   */\n      pop\n        /* \"#utility.yul\":152:481   */\n      swap3\n      swap2\n      pop\n      pop\n      jump\t// out\n        /* \"#utility.yul\":487:629   */\n    tag_45:\n        /* \"#utility.yul\":590:622   */\n      tag_47\n        /* \"#utility.yul\":616:621   */\n      dup2\n        /* \"#utility.yul\":590:622   */\n      tag_48\n      jump\t// in\n    tag_47:\n        /* \"#utility.yul\":585:588   */\n      dup3\n        /* \"#utility.yul\":578:623   */\n      mstore\n        /* \"#utility.yul\":487:629   */\n      pop\n      pop\n      jump\t// out\n        /* \"#utility.yul\":635:753   */\n    tag_49:\n        /* \"#utility.yul\":722:746   */\n      tag_51\n        /* \"#utility.yul\":740:745   */\n      dup2\n        /* \"#utility.yul\":722:746   */\n      tag_52\n      jump\t// in\n    tag_51:\n        /* \"#utility.yul\":717:720   */\n      dup3\n        /* \"#utility.yul\":710:747   */\n      mstore\n        /* \"#utility.yul\":635:753   */\n      pop\n      pop\n      jump\t// out\n        /* \"#utility.yul\":759:1125   */\n    tag_53:\n        /* \"#utility.yul\":901:904   */\n      0x00\n        /* \"#utility.yul\":922:989   */\n      tag_55\n        /* \"#utility.yul\":986:988   */\n      0x21\n        /* \"#utility.yul\":981:984   */\n      dup4\n        /* \"#utility.yul\":922:989   */\n      tag_56\n      jump\t// in\n    tag_55:\n        /* \"#utility.yul\":915:989   */\n      swap2\n      pop\n        /* \"#utility.yul\":998:1091   */\n      tag_57\n        /* \"#utility.yul\":1087:1090   */\n      dup3\n        /* \"#utility.yul\":998:1091   */\n      tag_58\n      jump\t// in\n    tag_57:\n        /* \"#utility.yul\":1116:1118   */\n      0x40\n        /* \"#utility.yul\":1111:1114   */\n      dup3\n        /* \"#utility.yul\":1107:1119   */\n      add\n        /* \"#utility.yul\":1100:1119   */\n      swap1\n      pop\n        /* \"#utility.yul\":759:1125   */\n      swap2\n      swap1\n      pop\n      jump\t// out\n        /* \"#utility.yul\":1131:1497   */\n    tag_59:\n        /* \"#utility.yul\":1273:1276   */\n      0x00\n        /* \"#utility.yul\":1294:1361   */\n      tag_61\n        /* \"#utility.yul\":1358:1360   */\n      0x23\n        /* \"#utility.yul\":1353:1356   */\n      dup4\n        /* \"#utility.yul\":1294:1361   */\n      tag_56\n      jump\t// in\n    tag_61:\n        /* \"#utility.yul\":1287:1361   */\n      swap2\n      pop\n        /* \"#utility.yul\":1370:1463   */\n      tag_62\n        /* \"#utility.yul\":1459:1462   */\n      dup3\n        /* \"#utility.yul\":1370:1463   */\n      tag_63\n      jump\t// in\n    tag_62:\n        /* \"#utility.yul\":1488:1490   */\n      0x40\n        /* \"#utility.yul\":1483:1486   */\n      dup3\n        /* \"#utility.yul\":1479:1491   */\n      add\n        /* \"#utility.yul\":1472:1491   */\n      swap1\n      pop\n        /* \"#utility.yul\":1131:1497   */\n      swap2\n      swap1\n      pop\n      jump\t// out\n        /* \"#utility.yul\":1503:1621   */\n    tag_64:\n        /* \"#utility.yul\":1590:1614   */\n      tag_66\n        /* \"#utility.yul\":1608:1613   */\n      dup2\n        /* \"#utility.yul\":1590:1614   */\n      tag_67\n      jump\t// in\n    tag_66:\n        /* \"#utility.yul\":1585:1588   */\n      dup3\n        /* \"#utility.yul\":1578:1615   */\n      mstore\n        /* \"#utility.yul\":1503:1621   */\n      pop\n      pop\n      jump\t// out\n        /* \"#utility.yul\":1627:1849   */\n    tag_28:\n        /* \"#utility.yul\":1720:1724   */\n      0x00\n        /* \"#utility.yul\":1758:1760   */\n      0x20\n        /* \"#utility.yul\":1747:1756   */\n      dup3\n        /* \"#utility.yul\":1743:1761   */\n      add\n        /* \"#utility.yul\":1735:1761   */\n      swap1\n      pop\n        /* \"#utility.yul\":1771:1842   */\n      tag_69\n        /* \"#utility.yul\":1839:1840   */\n      0x00\n        /* \"#utility.yul\":1828:1837   */\n      dup4\n        /* \"#utility.yul\":1824:1841   */\n      add\n        /* \"#utility.yul\":1815:1821   */\n      dup5\n        /* \"#utility.yul\":1771:1842   */\n      tag_49\n      jump\t// in\n    tag_69:\n        /* \"#utility.yul\":1627:1849   */\n      swap3\n      swap2\n      pop\n      pop\n      jump\t// out\n        /* \"#utility.yul\":1855:2109   */\n    tag_23:\n        /* \"#utility.yul\":1964:1968   */\n      0x00\n        /* \"#utility.yul\":2002:2004   */\n      0x20\n        /* \"#utility.yul\":1991:2000   */\n      dup3\n        /* \"#utility.yul\":1987:2005   */\n      add\n        /* \"#utility.yul\":1979:2005   */\n      swap1\n      pop\n        /* \"#utility.yul\":2015:2102   */\n      tag_71\n        /* \"#utility.yul\":2099:2100   */\n      0x00\n        /* \"#utility.yul\":2088:2097   */\n      dup4\n        /* \"#utility.yul\":2084:2101   */\n      add\n        /* \"#utility.yul\":2075:2081   */\n      dup5\n        /* \"#utility.yul\":2015:2102   */\n      tag_45\n      jump\t// in\n    tag_71:\n        /* \"#utility.yul\":1855:2109   */\n      swap3\n      swap2\n      pop\n      pop\n      jump\t// out\n        /* \"#utility.yul\":2115:2534   */\n    tag_10:\n        /* \"#utility.yul\":2281:2285   */\n      0x00\n        /* \"#utility.yul\":2319:2321   */\n      0x20\n        /* \"#utility.yul\":2308:2317   */\n      dup3\n        /* \"#utility.yul\":2304:2322   */\n      add\n        /* \"#utility.yul\":2296:2322   */\n      swap1\n      pop\n        /* \"#utility.yul\":2368:2377   */\n      dup2\n        /* \"#utility.yul\":2362:2366   */\n      dup2\n        /* \"#utility.yul\":2358:2378   */\n      sub\n        /* \"#utility.yul\":2354:2355   */\n      0x00\n        /* \"#utility.yul\":2343:2352   */\n      dup4\n        /* \"#utility.yul\":2339:2356   */\n      add\n        /* \"#utility.yul\":2332:2379   */\n      mstore\n        /* \"#utility.yul\":2396:2527   */\n      tag_73\n        /* \"#utility.yul\":2522:2526   */\n      dup2\n        /* \"#utility.yul\":2396:2527   */\n      tag_53\n      jump\t// in\n    tag_73:\n        /* \"#utility.yul\":2388:2527   */\n      swap1\n      pop\n        /* \"#utility.yul\":2115:2534   */\n      swap2\n      swap1\n      pop\n      jump\t// out\n        /* \"#utility.yul\":2540:2959   */\n    tag_32:\n        /* \"#utility.yul\":2706:2710   */\n      0x00\n        /* \"#utility.yul\":2744:2746   */\n      0x20\n        /* \"#utility.yul\":2733:2742   */\n      dup3\n        /* \"#utility.yul\":2729:2747   */\n      add\n        /* \"#utility.yul\":2721:2747   */\n      swap1\n      pop\n        /* \"#utility.yul\":2793:2802   */\n      dup2\n        /* \"#utility.yul\":2787:2791   */\n      dup2\n        /* \"#utility.yul\":2783:2803   */\n      sub\n        /* \"#utility.yul\":2779:2780   */\n      0x00\n        /* \"#utility.yul\":2768:2777   */\n      dup4\n        /* \"#utility.yul\":2764:2781   */\n      add\n        /* \"#utility.yul\":2757:2804   */\n      mstore\n        /* \"#utility.yul\":2821:2952   */\n      tag_75\n        /* \"#utility.yul\":2947:2951   */\n      dup2\n        /* \"#utility.yul\":2821:2952   */\n      tag_59\n      jump\t// in\n    tag_75:\n        /* \"#utility.yul\":2813:2952   */\n      swap1\n      pop\n        /* \"#utility.yul\":2540:2959   */\n      swap2\n      swap1\n      pop\n      jump\t// out\n        /* \"#utility.yul\":2965:3187   */\n    tag_16:\n        /* \"#utility.yul\":3058:3062   */\n      0x00\n        /* \"#utility.yul\":3096:3098   */\n      0x20\n        /* \"#utility.yul\":3085:3094   */\n      dup3\n        /* \"#utility.yul\":3081:3099   */\n      add\n        /* \"#utility.yul\":3073:3099   */\n      swap1\n      pop\n        /* \"#utility.yul\":3109:3180   */\n      tag_77\n        /* \"#utility.yul\":3177:3178   */\n      0x00\n        /* \"#utility.yul\":3166:3175   */\n      dup4\n        /* \"#utility.yul\":3162:3179   */\n      add\n        /* \"#utility.yul\":3153:3159   */\n      dup5\n        /* \"#utility.yul\":3109:3180   */\n      tag_64\n      jump\t// in\n    tag_77:\n        /* \"#utility.yul\":2965:3187   */\n      swap3\n      swap2\n      pop\n      pop\n      jump\t// out\n        /* \"#utility.yul\":3274:3443   */\n    tag_56:\n        /* \"#utility.yul\":3358:3369   */\n      0x00\n        /* \"#utility.yul\":3392:3398   */\n      dup3\n        /* \"#utility.yul\":3387:3390   */\n      dup3\n        /* \"#utility.yul\":3380:3399   */\n      mstore\n        /* \"#utility.yul\":3432:3436   */\n      0x20\n        /* \"#utility.yul\":3427:3430   */\n      dup3\n        /* \"#utility.yul\":3423:3437   */\n      add\n        /* \"#utility.yul\":3408:3437   */\n      swap1\n      pop\n        /* \"#utility.yul\":3274:3443   */\n      swap3\n      swap2\n      pop\n      pop\n      jump\t// out\n        /* \"#utility.yul\":3449:3545   */\n    tag_52:\n        /* \"#utility.yul\":3486:3493   */\n      0x00\n        /* \"#utility.yul\":3515:3539   */\n      tag_82\n        /* \"#utility.yul\":3533:3538   */\n      dup3\n        /* \"#utility.yul\":3515:3539   */\n      tag_83\n      jump\t// in\n    tag_82:\n        /* \"#utility.yul\":3504:3539   */\n      swap1\n      pop\n        /* \"#utility.yul\":3449:3545   */\n      swap2\n      swap1\n      pop\n      jump\t// out\n        /* \"#utility.yul\":3551:3655   */\n    tag_48:\n        /* \"#utility.yul\":3596:3603   */\n      0x00\n        /* \"#utility.yul\":3625:3649   */\n      tag_85\n        /* \"#utility.yul\":3643:3648   */\n      dup3\n        /* \"#utility.yul\":3625:3649   */\n      tag_83\n      jump\t// in\n    tag_85:\n        /* \"#utility.yul\":3614:3649   */\n      swap1\n      pop\n        /* \"#utility.yul\":3551:3655   */\n      swap2\n      swap1\n      pop\n      jump\t// out\n        /* \"#utility.yul\":3661:3787   */\n    tag_83:\n        /* \"#utility.yul\":3698:3705   */\n      0x00\n        /* \"#utility.yul\":3738:3780   */\n      0xffffffffffffffffffffffffffffffffffffffff\n        /* \"#utility.yul\":3731:3736   */\n      dup3\n        /* \"#utility.yul\":3727:3781   */\n      and\n        /* \"#utility.yul\":3716:3781   */\n      swap1\n      pop\n        /* \"#utility.yul\":3661:3787   */\n      swap2\n      swap1\n      pop\n      jump\t// out\n        /* \"#utility.yul\":3793:3870   */\n    tag_67:\n        /* \"#utility.yul\":3830:3837   */\n      0x00\n        /* \"#utility.yul\":3859:3864   */\n      dup2\n        /* \"#utility.yul\":3848:3864   */\n      swap1\n      pop\n        /* \"#utility.yul\":3793:3870   */\n      swap2\n      swap1\n      pop\n      jump\t// out\n        /* \"#utility.yul\":3999:4116   */\n    tag_43:\n        /* \"#utility.yul\":4108:4109   */\n      0x00\n        /* \"#utility.yul\":4105:4106   */\n      dup1\n        /* \"#utility.yul\":4098:4110   */\n      revert\n        /* \"#utility.yul\":4122:4342   */\n    tag_58:\n        /* \"#utility.yul\":4262:4296   */\n      0x43616e6e6f74207472616e73666572206c657373207468616e20312065746865\n        /* \"#utility.yul\":4258:4259   */\n      0x00\n        /* \"#utility.yul\":4250:4256   */\n      dup3\n        /* \"#utility.yul\":4246:4260   */\n      add\n        /* \"#utility.yul\":4239:4297   */\n      mstore\n        /* \"#utility.yul\":4331:4334   */\n      0x7200000000000000000000000000000000000000000000000000000000000000\n        /* \"#utility.yul\":4326:4328   */\n      0x20\n        /* \"#utility.yul\":4318:4324   */\n      dup3\n        /* \"#utility.yul\":4314:4329   */\n      add\n        /* \"#utility.yul\":4307:4335   */\n      mstore\n        /* \"#utility.yul\":4122:4342   */\n      pop\n      jump\t// out\n        /* \"#utility.yul\":4348:4570   */\n    tag_63:\n        /* \"#utility.yul\":4488:4522   */\n      0x4f6e6c79204d616e616765722063616e20616363657373207468652062616c61\n        /* \"#utility.yul\":4484:4485   */\n      0x00\n        /* \"#utility.yul\":4476:4482   */\n      dup3\n        /* \"#utility.yul\":4472:4486   */\n      add\n        /* \"#utility.yul\":4465:4523   */\n      mstore\n        /* \"#utility.yul\":4557:4562   */\n      0x6e63650000000000000000000000000000000000000000000000000000000000\n        /* \"#utility.yul\":4552:4554   */\n      0x20\n        /* \"#utility.yul\":4544:4550   */\n      dup3\n        /* \"#utility.yul\":4540:4555   */\n      add\n        /* \"#utility.yul\":4533:4563   */\n      mstore\n        /* \"#utility.yul\":4348:4570   */\n      pop\n      jump\t// out\n        /* \"#utility.yul\":4576:4698   */\n    tag_39:\n        /* \"#utility.yul\":4649:4673   */\n      tag_94\n        /* \"#utility.yul\":4667:4672   */\n      dup2\n        /* \"#utility.yul\":4649:4673   */\n      tag_67\n      jump\t// in\n    tag_94:\n        /* \"#utility.yul\":4642:4647   */\n      dup2\n        /* \"#utility.yul\":4639:4674   */\n      eq\n        /* \"#utility.yul\":4629:4692   */\n      tag_95\n      jumpi\n        /* \"#utility.yul\":4688:4689   */\n      0x00\n        /* \"#utility.yul\":4685:4686   */\n      dup1\n        /* \"#utility.yul\":4678:4690   */\n      revert\n        /* \"#utility.yul\":4629:4692   */\n    tag_95:\n        /* \"#utility.yul\":4576:4698   */\n      pop\n      jump\t// out\n\n    auxdata: 0xa264697066735822122083dfc98b4b09dcb43e0270dcedf7c31e51e618bc425a47b7a253346ebaf2276464736f6c63430008070033\n}\n",
				"bytecode": {
					"linkReferences": {},
					"object": "608060405234801561001057600080fd5b50336000806101000a81548173ffffffffffffffffffffffffffffffffffffffff021916908373ffffffffffffffffffffffffffffffffffffffff160217905550610514806100606000396000f3fe6080604052600436106100385760003560e01c806312065fe0146100f257806335c1d3491461011d57806378357e531461015a576100ed565b366100ed57670de0b6b3a7640000341015610088576040517f08c379a000000000000000000000000000000000000000000000000000000000815260040161007f9061036a565b60405180910390fd5b6001339080600181540180825580915050600190039060005260206000200160009091909190916101000a81548173ffffffffffffffffffffffffffffffffffffffff021916908373ffffffffffffffffffffffffffffffffffffffff160217905550005b600080fd5b3480156100fe57600080fd5b50610107610185565b60405161011491906103aa565b60405180910390f35b34801561012957600080fd5b50610144600480360381019061013f9190610294565b61021c565b604051610151919061034f565b60405180910390f35b34801561016657600080fd5b5061016f61025b565b60405161017c9190610334565b60405180910390f35b60008060009054906101000a900473ffffffffffffffffffffffffffffffffffffffff1673ffffffffffffffffffffffffffffffffffffffff163373ffffffffffffffffffffffffffffffffffffffff1614610216576040517f08c379a000000000000000000000000000000000000000000000000000000000815260040161020d9061038a565b60405180910390fd5b47905090565b6001818154811061022c57600080fd5b906000526020600020016000915054906101000a900473ffffffffffffffffffffffffffffffffffffffff1681565b60008054906101000a900473ffffffffffffffffffffffffffffffffffffffff1681565b60008135905061028e816104c7565b92915050565b6000602082840312156102aa576102a9610424565b5b60006102b88482850161027f565b91505092915050565b6102ca816103e8565b82525050565b6102d9816103d6565b82525050565b60006102ec6021836103c5565b91506102f782610429565b604082019050919050565b600061030f6023836103c5565b915061031a82610478565b604082019050919050565b61032e8161041a565b82525050565b600060208201905061034960008301846102d0565b92915050565b600060208201905061036460008301846102c1565b92915050565b60006020820190508181036000830152610383816102df565b9050919050565b600060208201905081810360008301526103a381610302565b9050919050565b60006020820190506103bf6000830184610325565b92915050565b600082825260208201905092915050565b60006103e1826103fa565b9050919050565b60006103f3826103fa565b9050919050565b600073ffffffffffffffffffffffffffffffffffffffff82169050919050565b6000819050919050565b600080fd5b7f43616e6e6f74207472616e73666572206c657373207468616e2031206574686560008201527f7200000000000000000000000000000000000000000000000000000000000000602082015250565b7f4f6e6c79204d616e616765722063616e20616363657373207468652062616c6160008201527f6e63650000000000000000000000000000000000000000000000000000000000602082015250565b6104d08161041a565b81146104db57600080fd5b5056fea264697066735822122083dfc98b4b09dcb43e0270dcedf7c31e51e618bc425a47b7a253346ebaf2276464736f6c63430008070033",
					"opcodes": "PUSH1 0x80 PUSH1 0x40 MSTORE CALLVALUE DUP1 ISZERO PUSH2 0x10 JUMPI PUSH1 0x0 DUP1 REVERT JUMPDEST POP CALLER PUSH1 0x0 DUP1 PUSH2 0x100 EXP DUP2 SLOAD DUP2 PUSH20 0xFFFFFFFFFFFFFFFFFFFFFFFFFFFFFFFFFFFFFFFF MUL NOT AND SWAP1 DUP4 PUSH20 0xFFFFFFFFFFFFFFFFFFFFFFFFFFFFFFFFFFFFFFFF AND MUL OR SWAP1 SSTORE POP PUSH2 0x514 DUP1 PUSH2 0x60 PUSH1 0x0 CODECOPY PUSH1 0x0 RETURN INVALID PUSH1 0x80 PUSH1 0x40 MSTORE PUSH1 0x4 CALLDATASIZE LT PUSH2 0x38 JUMPI PUSH1 0x0 CALLDATALOAD PUSH1 0xE0 SHR DUP1 PUSH4 0x12065FE0 EQ PUSH2 0xF2 JUMPI DUP1 PUSH4 0x35C1D349 EQ PUSH2 0x11D JUMPI DUP1 PUSH4 0x78357E53 EQ PUSH2 0x15A JUMPI PUSH2 0xED JUMP JUMPDEST CALLDATASIZE PUSH2 0xED JUMPI PUSH8 0xDE0B6B3A7640000 CALLVALUE LT ISZERO PUSH2 0x88 JUMPI PUSH1 0x40 MLOAD PUSH32 0x8C379A000000000000000000000000000000000000000000000000000000000 DUP2 MSTORE PUSH1 0x4 ADD PUSH2 0x7F SWAP1 PUSH2 0x36A JUMP JUMPDEST PUSH1 0x40 MLOAD DUP1 SWAP2 SUB SWAP1 REVERT JUMPDEST PUSH1 0x1 CALLER SWAP1 DUP1 PUSH1 0x1 DUP2 SLOAD ADD DUP1 DUP3 SSTORE DUP1 SWAP2 POP POP PUSH1 0x1 SWAP1 SUB SWAP1 PUSH1 0x0 MSTORE PUSH1 0x20 PUSH1 0x0 KECCAK256 ADD PUSH1 0x0 SWAP1 SWAP2 SWAP1 SWAP2 SWAP1 SWAP2 PUSH2 0x100 EXP DUP2 SLOAD DUP2 PUSH20 0xFFFFFFFFFFFFFFFFFFFFFFFFFFFFFFFFFFFFFFFF MUL NOT AND SWAP1 DUP4 PUSH20 0xFFFFFFFFFFFFFFFFFFFFFFFFFFFFFFFFFFFFFFFF AND MUL OR SWAP1 SSTORE POP STOP JUMPDEST PUSH1 0x0 DUP1 REVERT JUMPDEST CALLVALUE DUP1 ISZERO PUSH2 0xFE JUMPI PUSH1 0x0 DUP1 REVERT JUMPDEST POP PUSH2 0x107 PUSH2 0x185 JUMP JUMPDEST PUSH1 0x40 MLOAD PUSH2 0x114 SWAP2 SWAP1 PUSH2 0x3AA JUMP JUMPDEST PUSH1 0x40 MLOAD DUP1 SWAP2 SUB SWAP1 RETURN JUMPDEST CALLVALUE DUP1 ISZERO PUSH2 0x129 JUMPI PUSH1 0x0 DUP1 REVERT JUMPDEST POP PUSH2 0x144 PUSH1 0x4 DUP1 CALLDATASIZE SUB DUP2 ADD SWAP1 PUSH2 0x13F SWAP2 SWAP1 PUSH2 0x294 JUMP JUMPDEST PUSH2 0x21C JUMP JUMPDEST PUSH1 0x40 MLOAD PUSH2 0x151 SWAP2 SWAP1 PUSH2 0x34F JUMP JUMPDEST PUSH1 0x40 MLOAD DUP1 SWAP2 SUB SWAP1 RETURN JUMPDEST CALLVALUE DUP1 ISZERO PUSH2 0x166 JUMPI PUSH1 0x0 DUP1 REVERT JUMPDEST POP PUSH2 0x16F PUSH2 0x25B JUMP JUMPDEST PUSH1 0x40 MLOAD PUSH2 0x17C SWAP2 SWAP1 PUSH2 0x334 JUMP JUMPDEST PUSH1 0x40 MLOAD DUP1 SWAP2 SUB SWAP1 RETURN JUMPDEST PUSH1 0x0 DUP1 PUSH1 0x0 SWAP1 SLOAD SWAP1 PUSH2 0x100 EXP SWAP1 DIV PUSH20 0xFFFFFFFFFFFFFFFFFFFFFFFFFFFFFFFFFFFFFFFF AND PUSH20 0xFFFFFFFFFFFFFFFFFFFFFFFFFFFFFFFFFFFFFFFF AND CALLER PUSH20 0xFFFFFFFFFFFFFFFFFFFFFFFFFFFFFFFFFFFFFFFF AND EQ PUSH2 0x216 JUMPI PUSH1 0x40 MLOAD PUSH32 0x8C379A000000000000000000000000000000000000000000000000000000000 DUP2 MSTORE PUSH1 0x4 ADD PUSH2 0x20D SWAP1 PUSH2 0x38A JUMP JUMPDEST PUSH1 0x40 MLOAD DUP1 SWAP2 SUB SWAP1 REVERT JUMPDEST SELFBALANCE SWAP1 POP SWAP1 JUMP JUMPDEST PUSH1 0x1 DUP2 DUP2 SLOAD DUP2 LT PUSH2 0x22C JUMPI PUSH1 0x0 DUP1 REVERT JUMPDEST SWAP1 PUSH1 0x0 MSTORE PUSH1 0x20 PUSH1 0x0 KECCAK256 ADD PUSH1 0x0 SWAP2 POP SLOAD SWAP1 PUSH2 0x100 EXP SWAP1 DIV PUSH20 0xFFFFFFFFFFFFFFFFFFFFFFFFFFFFFFFFFFFFFFFF AND DUP2 JUMP JUMPDEST PUSH1 0x0 DUP1 SLOAD SWAP1 PUSH2 0x100 EXP SWAP1 DIV PUSH20 0xFFFFFFFFFFFFFFFFFFFFFFFFFFFFFFFFFFFFFFFF AND DUP2 JUMP JUMPDEST PUSH1 0x0 DUP2 CALLDATALOAD SWAP1 POP PUSH2 0x28E DUP2 PUSH2 0x4C7 JUMP JUMPDEST SWAP3 SWAP2 POP POP JUMP JUMPDEST PUSH1 0x0 PUSH1 0x20 DUP3 DUP5 SUB SLT ISZERO PUSH2 0x2AA JUMPI PUSH2 0x2A9 PUSH2 0x424 JUMP JUMPDEST JUMPDEST PUSH1 0x0 PUSH2 0x2B8 DUP5 DUP3 DUP6 ADD PUSH2 0x27F JUMP JUMPDEST SWAP2 POP POP SWAP3 SWAP2 POP POP JUMP JUMPDEST PUSH2 0x2CA DUP2 PUSH2 0x3E8 JUMP JUMPDEST DUP3 MSTORE POP POP JUMP JUMPDEST PUSH2 0x2D9 DUP2 PUSH2 0x3D6 JUMP JUMPDEST DUP3 MSTORE POP POP JUMP JUMPDEST PUSH1 0x0 PUSH2 0x2EC PUSH1 0x21 DUP4 PUSH2 0x3C5 JUMP JUMPDEST SWAP2 POP PUSH2 0x2F7 DUP3 PUSH2 0x429 JUMP JUMPDEST PUSH1 0x40 DUP3 ADD SWAP1 POP SWAP2 SWAP1 POP JUMP JUMPDEST PUSH1 0x0 PUSH2 0x30F PUSH1 0x23 DUP4 PUSH2 0x3C5 JUMP JUMPDEST SWAP2 POP PUSH2 0x31A DUP3 PUSH2 0x478 JUMP JUMPDEST PUSH1 0x40 DUP3 ADD SWAP1 POP SWAP2 SWAP1 POP JUMP JUMPDEST PUSH2 0x32E DUP2 PUSH2 0x41A JUMP JUMPDEST DUP3 MSTORE POP POP JUMP JUMPDEST PUSH1 0x0 PUSH1 0x20 DUP3 ADD SWAP1 POP PUSH2 0x349 PUSH1 0x0 DUP4 ADD DUP5 PUSH2 0x2D0 JUMP JUMPDEST SWAP3 SWAP2 POP POP JUMP JUMPDEST PUSH1 0x0 PUSH1 0x20 DUP3 ADD SWAP1 POP PUSH2 0x364 PUSH1 0x0 DUP4 ADD DUP5 PUSH2 0x2C1 JUMP JUMPDEST SWAP3 SWAP2 POP POP JUMP JUMPDEST PUSH1 0x0 PUSH1 0x20 DUP3 ADD SWAP1 POP DUP2 DUP2 SUB PUSH1 0x0 DUP4 ADD MSTORE PUSH2 0x383 DUP2 PUSH2 0x2DF JUMP JUMPDEST SWAP1 POP SWAP2 SWAP1 POP JUMP JUMPDEST PUSH1 0x0 PUSH1 0x20 DUP3 ADD SWAP1 POP DUP2 DUP2 SUB PUSH1 0x0 DUP4 ADD MSTORE PUSH2 0x3A3 DUP2 PUSH2 0x302 JUMP JUMPDEST SWAP1 POP SWAP2 SWAP1 POP JUMP JUMPDEST PUSH1 0x0 PUSH1 0x20 DUP3 ADD SWAP1 POP PUSH2 0x3BF PUSH1 0x0 DUP4 ADD DUP5 PUSH2 0x325 JUMP JUMPDEST SWAP3 SWAP2 POP POP JUMP JUMPDEST PUSH1 0x0 DUP3 DUP3 MSTORE PUSH1 0x20 DUP3 ADD SWAP1 POP SWAP3 SWAP2 POP POP JUMP JUMPDEST PUSH1 0x0 PUSH2 0x3E1 DUP3 PUSH2 0x3FA JUMP JUMPDEST SWAP1 POP SWAP2 SWAP1 POP JUMP JUMPDEST PUSH1 0x0 PUSH2 0x3F3 DUP3 PUSH2 0x3FA JUMP JUMPDEST SWAP1 POP SWAP2 SWAP1 POP JUMP JUMPDEST PUSH1 0x0 PUSH20 0xFFFFFFFFFFFFFFFFFFFFFFFFFFFFFFFFFFFFFFFF DUP3 AND SWAP1 POP SWAP2 SWAP1 POP JUMP JUMPDEST PUSH1 0x0 DUP2 SWAP1 POP SWAP2 SWAP1 POP JUMP JUMPDEST PUSH1 0x0 DUP1 REVERT JUMPDEST PUSH32 0x43616E6E6F74207472616E73666572206C657373207468616E20312065746865 PUSH1 0x0 DUP3 ADD MSTORE PUSH32 0x7200000000000000000000000000000000000000000000000000000000000000 PUSH1 0x20 DUP3 ADD MSTORE POP JUMP JUMPDEST PUSH32 0x4F6E6C79204D616E616765722063616E20616363657373207468652062616C61 PUSH1 0x0 DUP3 ADD MSTORE PUSH32 0x6E63650000000000000000000000000000000000000000000000000000000000 PUSH1 0x20 DUP3 ADD MSTORE POP JUMP JUMPDEST PUSH2 0x4D0 DUP2 PUSH2 0x41A JUMP JUMPDEST DUP2 EQ PUSH2 0x4DB JUMPI PUSH1 0x0 DUP1 REVERT JUMPDEST POP JUMP INVALID LOG2 PUSH5 0x6970667358 0x22 SLT KECCAK256 DUP4 0xDF 0xC9 DUP12 0x4B MULMOD 0xDC 0xB4 RETURNDATACOPY MUL PUSH17 0xDCEDF7C31E51E618BC425A47B7A253346E 0xBA CALLCODE 0x27 PUSH5 0x64736F6C63 NUMBER STOP ADDMOD SMOD STOP CALLER "
				},
				"gasEstimates": {
					"creation": {
						"codeDepositCost": "260000",
						"executionCost": "24566",
						"totalCost": "284566"
					},
					"external": {
						"Manager()": "2533",
						"getBalance()": "2602",
						"participants(uint256)": "4956"
					}
				},
				"methodIdentifiers": {
					"Manager()": "78357e53",
					"getBalance()": "12065fe0",
					"participants(uint256)": "35c1d349"
				}
			},
			"storageLayout": {
				"storage": [
					{
						"astId": 3,
						"contract": "Lottery.sol:Lottery",
						"label": "Manager",
						"offset": 0,
						"slot": "0",
						"type": "t_address"
					},
					{
						"astId": 6,
						"contract": "Lottery.sol:Lottery",
						"label": "participants",
						"offset": 0,
						"slot": "1",
						"type": "t_array(t_address_payable)dyn_storage"
					}
				],
				"types": {
					"t_address": {
						"encoding": "inplace",
						"label": "address",
						"numberOfBytes": "20"
					},
					"t_address_payable": {
						"encoding": "inplace",
						"label": "address payable",
						"numberOfBytes": "20"
					},
					"t_array(t_address_payable)dyn_storage": {
						"base": "t_address_payable",
						"encoding": "dynamic_array",
						"label": "address payable[]",
						"numberOfBytes": "32"
					}
				}
			},
			"userdoc": {
				"kind": "user",
				"methods": {},
				"version": 1
			}
		}
	}
}